{
  "_format": "hh-sol-artifact-1",
  "contractName": "NFTDev",
  "sourceName": "contracts/NFTDev.sol",
  "abi": [
    {
      "inputs": [
        {
          "internalType": "string",
          "name": "_name",
          "type": "string"
        },
        {
          "internalType": "string",
          "name": "_symbol",
          "type": "string"
        },
        {
          "internalType": "string",
          "name": "_initBaseURI",
          "type": "string"
        },
        {
          "internalType": "string",
          "name": "_initNotRevealedUri",
          "type": "string"
        }
      ],
      "stateMutability": "nonpayable",
      "type": "constructor"
    },
    {
      "anonymous": false,
      "inputs": [
        {
          "indexed": true,
          "internalType": "address",
          "name": "owner",
          "type": "address"
        },
        {
          "indexed": true,
          "internalType": "address",
          "name": "approved",
          "type": "address"
        },
        {
          "indexed": true,
          "internalType": "uint256",
          "name": "tokenId",
          "type": "uint256"
        }
      ],
      "name": "Approval",
      "type": "event"
    },
    {
      "anonymous": false,
      "inputs": [
        {
          "indexed": true,
          "internalType": "address",
          "name": "owner",
          "type": "address"
        },
        {
          "indexed": true,
          "internalType": "address",
          "name": "operator",
          "type": "address"
        },
        {
          "indexed": false,
          "internalType": "bool",
          "name": "approved",
          "type": "bool"
        }
      ],
      "name": "ApprovalForAll",
      "type": "event"
    },
    {
      "anonymous": false,
      "inputs": [
        {
          "indexed": true,
          "internalType": "address",
          "name": "previousOwner",
          "type": "address"
        },
        {
          "indexed": true,
          "internalType": "address",
          "name": "newOwner",
          "type": "address"
        }
      ],
      "name": "OwnershipTransferred",
      "type": "event"
    },
    {
      "anonymous": false,
      "inputs": [
        {
          "indexed": true,
          "internalType": "address",
          "name": "from",
          "type": "address"
        },
        {
          "indexed": true,
          "internalType": "address",
          "name": "to",
          "type": "address"
        },
        {
          "indexed": true,
          "internalType": "uint256",
          "name": "tokenId",
          "type": "uint256"
        }
      ],
      "name": "Transfer",
      "type": "event"
    },
    {
      "inputs": [
        {
          "internalType": "address",
          "name": "to",
          "type": "address"
        },
        {
          "internalType": "uint256",
          "name": "tokenId",
          "type": "uint256"
        }
      ],
      "name": "approve",
      "outputs": [],
      "stateMutability": "nonpayable",
      "type": "function"
    },
    {
      "inputs": [
        {
          "internalType": "address",
          "name": "owner",
          "type": "address"
        }
      ],
      "name": "balanceOf",
      "outputs": [
        {
          "internalType": "uint256",
          "name": "",
          "type": "uint256"
        }
      ],
      "stateMutability": "view",
      "type": "function"
    },
    {
      "inputs": [],
      "name": "baseExtension",
      "outputs": [
        {
          "internalType": "string",
          "name": "",
          "type": "string"
        }
      ],
      "stateMutability": "view",
      "type": "function"
    },
    {
      "inputs": [],
      "name": "cost",
      "outputs": [
        {
          "internalType": "uint256",
          "name": "",
          "type": "uint256"
        }
      ],
      "stateMutability": "view",
      "type": "function"
    },
    {
      "inputs": [],
      "name": "count",
      "outputs": [
        {
          "internalType": "uint256",
          "name": "",
          "type": "uint256"
        }
      ],
      "stateMutability": "view",
      "type": "function"
    },
    {
      "inputs": [
        {
          "internalType": "uint256",
          "name": "tokenId",
          "type": "uint256"
        }
      ],
      "name": "getApproved",
      "outputs": [
        {
          "internalType": "address",
          "name": "",
          "type": "address"
        }
      ],
      "stateMutability": "view",
      "type": "function"
    },
    {
      "inputs": [
        {
          "internalType": "address",
          "name": "owner",
          "type": "address"
        },
        {
          "internalType": "address",
          "name": "operator",
          "type": "address"
        }
      ],
      "name": "isApprovedForAll",
      "outputs": [
        {
          "internalType": "bool",
          "name": "",
          "type": "bool"
        }
      ],
      "stateMutability": "view",
      "type": "function"
    },
    {
      "inputs": [],
      "name": "maxMintAmount",
      "outputs": [
        {
          "internalType": "uint256",
          "name": "",
          "type": "uint256"
        }
      ],
      "stateMutability": "view",
      "type": "function"
    },
    {
      "inputs": [],
      "name": "maxSupply",
      "outputs": [
        {
          "internalType": "uint256",
          "name": "",
          "type": "uint256"
        }
      ],
      "stateMutability": "view",
      "type": "function"
    },
    {
      "inputs": [
        {
          "internalType": "uint256",
          "name": "_mintAmount",
          "type": "uint256"
        }
      ],
      "name": "mint",
      "outputs": [],
      "stateMutability": "payable",
      "type": "function"
    },
    {
      "inputs": [],
      "name": "name",
      "outputs": [
        {
          "internalType": "string",
          "name": "",
          "type": "string"
        }
      ],
      "stateMutability": "view",
      "type": "function"
    },
    {
      "inputs": [],
      "name": "notRevealedUri",
      "outputs": [
        {
          "internalType": "string",
          "name": "",
          "type": "string"
        }
      ],
      "stateMutability": "view",
      "type": "function"
    },
    {
      "inputs": [],
      "name": "owner",
      "outputs": [
        {
          "internalType": "address",
          "name": "",
          "type": "address"
        }
      ],
      "stateMutability": "view",
      "type": "function"
    },
    {
      "inputs": [
        {
          "internalType": "uint256",
          "name": "tokenId",
          "type": "uint256"
        }
      ],
      "name": "ownerOf",
      "outputs": [
        {
          "internalType": "address",
          "name": "",
          "type": "address"
        }
      ],
      "stateMutability": "view",
      "type": "function"
    },
    {
      "inputs": [
        {
          "internalType": "bool",
          "name": "_state",
          "type": "bool"
        }
      ],
      "name": "pause",
      "outputs": [],
      "stateMutability": "nonpayable",
      "type": "function"
    },
    {
      "inputs": [],
      "name": "paused",
      "outputs": [
        {
          "internalType": "bool",
          "name": "",
          "type": "bool"
        }
      ],
      "stateMutability": "view",
      "type": "function"
    },
    {
      "inputs": [],
      "name": "renounceOwnership",
      "outputs": [],
      "stateMutability": "nonpayable",
      "type": "function"
    },
    {
      "inputs": [],
      "name": "reveal",
      "outputs": [],
      "stateMutability": "nonpayable",
      "type": "function"
    },
    {
      "inputs": [],
      "name": "revealed",
      "outputs": [
        {
          "internalType": "bool",
          "name": "",
          "type": "bool"
        }
      ],
      "stateMutability": "view",
      "type": "function"
    },
    {
      "inputs": [
        {
          "internalType": "address",
          "name": "from",
          "type": "address"
        },
        {
          "internalType": "address",
          "name": "to",
          "type": "address"
        },
        {
          "internalType": "uint256",
          "name": "tokenId",
          "type": "uint256"
        }
      ],
      "name": "safeTransferFrom",
      "outputs": [],
      "stateMutability": "nonpayable",
      "type": "function"
    },
    {
      "inputs": [
        {
          "internalType": "address",
          "name": "from",
          "type": "address"
        },
        {
          "internalType": "address",
          "name": "to",
          "type": "address"
        },
        {
          "internalType": "uint256",
          "name": "tokenId",
          "type": "uint256"
        },
        {
          "internalType": "bytes",
          "name": "_data",
          "type": "bytes"
        }
      ],
      "name": "safeTransferFrom",
      "outputs": [],
      "stateMutability": "nonpayable",
      "type": "function"
    },
    {
      "inputs": [
        {
          "internalType": "address",
          "name": "operator",
          "type": "address"
        },
        {
          "internalType": "bool",
          "name": "approved",
          "type": "bool"
        }
      ],
      "name": "setApprovalForAll",
      "outputs": [],
      "stateMutability": "nonpayable",
      "type": "function"
    },
    {
      "inputs": [
        {
          "internalType": "string",
          "name": "_newBaseExtension",
          "type": "string"
        }
      ],
      "name": "setBaseExtension",
      "outputs": [],
      "stateMutability": "nonpayable",
      "type": "function"
    },
    {
      "inputs": [
        {
          "internalType": "string",
          "name": "_newBaseURI",
          "type": "string"
        }
      ],
      "name": "setBaseURI",
      "outputs": [],
      "stateMutability": "nonpayable",
      "type": "function"
    },
    {
      "inputs": [
        {
          "internalType": "uint256",
          "name": "_newCost",
          "type": "uint256"
        }
      ],
      "name": "setCost",
      "outputs": [],
      "stateMutability": "nonpayable",
      "type": "function"
    },
    {
      "inputs": [
        {
          "internalType": "string",
          "name": "_notRevealedURI",
          "type": "string"
        }
      ],
      "name": "setNotRevealedURI",
      "outputs": [],
      "stateMutability": "nonpayable",
      "type": "function"
    },
    {
      "inputs": [
        {
          "internalType": "uint256",
          "name": "_newmaxMintAmount",
          "type": "uint256"
        }
      ],
      "name": "setmaxMintAmount",
      "outputs": [],
      "stateMutability": "nonpayable",
      "type": "function"
    },
    {
      "inputs": [
        {
          "internalType": "bytes4",
          "name": "interfaceId",
          "type": "bytes4"
        }
      ],
      "name": "supportsInterface",
      "outputs": [
        {
          "internalType": "bool",
          "name": "",
          "type": "bool"
        }
      ],
      "stateMutability": "view",
      "type": "function"
    },
    {
      "inputs": [],
      "name": "symbol",
      "outputs": [
        {
          "internalType": "string",
          "name": "",
          "type": "string"
        }
      ],
      "stateMutability": "view",
      "type": "function"
    },
    {
      "inputs": [
        {
          "internalType": "uint256",
          "name": "index",
          "type": "uint256"
        }
      ],
      "name": "tokenByIndex",
      "outputs": [
        {
          "internalType": "uint256",
          "name": "",
          "type": "uint256"
        }
      ],
      "stateMutability": "view",
      "type": "function"
    },
    {
      "inputs": [
        {
          "internalType": "address",
          "name": "owner",
          "type": "address"
        },
        {
          "internalType": "uint256",
          "name": "index",
          "type": "uint256"
        }
      ],
      "name": "tokenOfOwnerByIndex",
      "outputs": [
        {
          "internalType": "uint256",
          "name": "",
          "type": "uint256"
        }
      ],
      "stateMutability": "view",
      "type": "function"
    },
    {
      "inputs": [
        {
          "internalType": "uint256",
          "name": "tokenId",
          "type": "uint256"
        }
      ],
      "name": "tokenURI",
      "outputs": [
        {
          "internalType": "string",
          "name": "",
          "type": "string"
        }
      ],
      "stateMutability": "view",
      "type": "function"
    },
    {
      "inputs": [],
      "name": "totalSupply",
      "outputs": [
        {
          "internalType": "uint256",
          "name": "",
          "type": "uint256"
        }
      ],
      "stateMutability": "view",
      "type": "function"
    },
    {
      "inputs": [
        {
          "internalType": "address",
          "name": "from",
          "type": "address"
        },
        {
          "internalType": "address",
          "name": "to",
          "type": "address"
        },
        {
          "internalType": "uint256",
          "name": "tokenId",
          "type": "uint256"
        }
      ],
      "name": "transferFrom",
      "outputs": [],
      "stateMutability": "nonpayable",
      "type": "function"
    },
    {
      "inputs": [
        {
          "internalType": "address",
          "name": "newOwner",
          "type": "address"
        }
      ],
      "name": "transferOwnership",
      "outputs": [],
      "stateMutability": "nonpayable",
      "type": "function"
    },
    {
      "inputs": [
        {
          "internalType": "address",
          "name": "_owner",
          "type": "address"
        }
      ],
      "name": "walletOfOwner",
      "outputs": [
        {
          "internalType": "uint256[]",
          "name": "",
          "type": "uint256[]"
        }
      ],
      "stateMutability": "view",
      "type": "function"
    },
    {
      "inputs": [],
      "name": "withdraw",
      "outputs": [],
      "stateMutability": "payable",
      "type": "function"
    }
  ],
  "bytecode": "0x60806040526040518060400160405280600581526020017f2e6a736f6e000000000000000000000000000000000000000000000000000000815250600d908051906020019062000051929190620003a1565b5066b1a2bc2ec50000600e55612710600f5560146010556000601160006101000a81548160ff0219169083151502179055506000601160016101000a81548160ff021916908315150217905550348015620000ab57600080fd5b5060405162004c9e38038062004c9e8339818101604052810190620000d19190620004c3565b83838160009080519060200190620000eb929190620003a1565b50806001908051906020019062000104929190620003a1565b505050620001276200011b6200015360201b60201c565b6200015b60201b60201c565b62000138826200022160201b60201c565b6200014981620002cc60201b60201c565b5050505062000786565b600033905090565b6000600a60009054906101000a900473ffffffffffffffffffffffffffffffffffffffff16905081600a60006101000a81548173ffffffffffffffffffffffffffffffffffffffff021916908373ffffffffffffffffffffffffffffffffffffffff1602179055508173ffffffffffffffffffffffffffffffffffffffff168173ffffffffffffffffffffffffffffffffffffffff167f8be0079c531659141344cd1fd0a4f28419497f9722a3daafe3b4186f6b6457e060405160405180910390a35050565b620002316200015360201b60201c565b73ffffffffffffffffffffffffffffffffffffffff16620002576200037760201b60201c565b73ffffffffffffffffffffffffffffffffffffffff1614620002b0576040517f08c379a0000000000000000000000000000000000000000000000000000000008152600401620002a790620005ba565b60405180910390fd5b80600c9080519060200190620002c8929190620003a1565b5050565b620002dc6200015360201b60201c565b73ffffffffffffffffffffffffffffffffffffffff16620003026200037760201b60201c565b73ffffffffffffffffffffffffffffffffffffffff16146200035b576040517f08c379a00000000000000000000000000000000000000000000000000000000081526004016200035290620005ba565b60405180910390fd5b806012908051906020019062000373929190620003a1565b5050565b6000600a60009054906101000a900473ffffffffffffffffffffffffffffffffffffffff16905090565b828054620003af9062000682565b90600052602060002090601f016020900481019282620003d357600085556200041f565b82601f10620003ee57805160ff19168380011785556200041f565b828001600101855582156200041f579182015b828111156200041e57825182559160200191906001019062000401565b5b5090506200042e919062000432565b5090565b5b808211156200044d57600081600090555060010162000433565b5090565b600062000468620004628462000605565b620005dc565b9050828152602081018484840111156200048157600080fd5b6200048e8482856200064c565b509392505050565b600082601f830112620004a857600080fd5b8151620004ba84826020860162000451565b91505092915050565b60008060008060808587031215620004da57600080fd5b600085015167ffffffffffffffff811115620004f557600080fd5b620005038782880162000496565b945050602085015167ffffffffffffffff8111156200052157600080fd5b6200052f8782880162000496565b935050604085015167ffffffffffffffff8111156200054d57600080fd5b6200055b8782880162000496565b925050606085015167ffffffffffffffff8111156200057957600080fd5b620005878782880162000496565b91505092959194509250565b6000620005a26020836200063b565b9150620005af826200075d565b602082019050919050565b60006020820190508181036000830152620005d58162000593565b9050919050565b6000620005e8620005fb565b9050620005f68282620006b8565b919050565b6000604051905090565b600067ffffffffffffffff8211156200062357620006226200071d565b5b6200062e826200074c565b9050602081019050919050565b600082825260208201905092915050565b60005b838110156200066c5780820151818401526020810190506200064f565b838111156200067c576000848401525b50505050565b600060028204905060018216806200069b57607f821691505b60208210811415620006b257620006b1620006ee565b5b50919050565b620006c3826200074c565b810181811067ffffffffffffffff82111715620006e557620006e46200071d565b5b80604052505050565b7f4e487b7100000000000000000000000000000000000000000000000000000000600052602260045260246000fd5b7f4e487b7100000000000000000000000000000000000000000000000000000000600052604160045260246000fd5b6000601f19601f8301169050919050565b7f4f776e61626c653a2063616c6c6572206973206e6f7420746865206f776e6572600082015250565b61450880620007966000396000f3fe60806040526004361061021a5760003560e01c806355f804b311610123578063a22cb465116100ab578063d5abeb011161006f578063d5abeb01146107a5578063da3ef23f146107d0578063e985e9c5146107f9578063f2c4ce1e14610836578063f2fde38b1461085f5761021a565b8063a22cb465146106d4578063a475b5dd146106fd578063b88d4fde14610714578063c66828621461073d578063c87b56dd146107685761021a565b8063715018a6116100f2578063715018a6146106225780637f00c7a6146106395780638da5cb5b1461066257806395d89b411461068d578063a0712d68146106b85761021a565b806355f804b3146105545780635c975abb1461057d5780636352211e146105a857806370a08231146105e55761021a565b8063239c70ae116101a657806342842e0e1161017557806342842e0e1461045d578063438b63001461048657806344a0d68a146104c35780634f6ccce7146104ec57806351830227146105295761021a565b8063239c70ae146103c257806323b872dd146103ed5780632f745c59146104165780633ccfd60b146104535761021a565b8063081812fc116101ed578063081812fc146102db578063081c8c4414610318578063095ea7b31461034357806313faede61461036c57806318160ddd146103975761021a565b806301ffc9a71461021f57806302329a291461025c57806306661abd1461028557806306fdde03146102b0575b600080fd5b34801561022b57600080fd5b5061024660048036038101906102419190613255565b610888565b604051610253919061384d565b60405180910390f35b34801561026857600080fd5b50610283600480360381019061027e919061322c565b610902565b005b34801561029157600080fd5b5061029a61099b565b6040516102a79190613aca565b60405180910390f35b3480156102bc57600080fd5b506102c56109ac565b6040516102d29190613868565b60405180910390f35b3480156102e757600080fd5b5061030260048036038101906102fd91906132e8565b610a3e565b60405161030f91906137c4565b60405180910390f35b34801561032457600080fd5b5061032d610ac3565b60405161033a9190613868565b60405180910390f35b34801561034f57600080fd5b5061036a600480360381019061036591906131f0565b610b51565b005b34801561037857600080fd5b50610381610c69565b60405161038e9190613aca565b60405180910390f35b3480156103a357600080fd5b506103ac610c6f565b6040516103b99190613aca565b60405180910390f35b3480156103ce57600080fd5b506103d7610c7c565b6040516103e49190613aca565b60405180910390f35b3480156103f957600080fd5b50610414600480360381019061040f91906130ea565b610c82565b005b34801561042257600080fd5b5061043d600480360381019061043891906131f0565b610ce2565b60405161044a9190613aca565b60405180910390f35b61045b610d87565b005b34801561046957600080fd5b50610484600480360381019061047f91906130ea565b610e83565b005b34801561049257600080fd5b506104ad60048036038101906104a89190613085565b610ea3565b6040516104ba919061382b565b60405180910390f35b3480156104cf57600080fd5b506104ea60048036038101906104e591906132e8565b610f9d565b005b3480156104f857600080fd5b50610513600480360381019061050e91906132e8565b611023565b6040516105209190613aca565b60405180910390f35b34801561053557600080fd5b5061053e6110ba565b60405161054b919061384d565b60405180910390f35b34801561056057600080fd5b5061057b600480360381019061057691906132a7565b6110cd565b005b34801561058957600080fd5b50610592611163565b60405161059f919061384d565b60405180910390f35b3480156105b457600080fd5b506105cf60048036038101906105ca91906132e8565b611176565b6040516105dc91906137c4565b60405180910390f35b3480156105f157600080fd5b5061060c60048036038101906106079190613085565b611228565b6040516106199190613aca565b60405180910390f35b34801561062e57600080fd5b506106376112e0565b005b34801561064557600080fd5b50610660600480360381019061065b91906132e8565b611368565b005b34801561066e57600080fd5b506106776113ee565b60405161068491906137c4565b60405180910390f35b34801561069957600080fd5b506106a2611418565b6040516106af9190613868565b60405180910390f35b6106d260048036038101906106cd91906132e8565b6114aa565b005b3480156106e057600080fd5b506106fb60048036038101906106f691906131b4565b6115a0565b005b34801561070957600080fd5b506107126115b6565b005b34801561072057600080fd5b5061073b60048036038101906107369190613139565b61164f565b005b34801561074957600080fd5b506107526116b1565b60405161075f9190613868565b60405180910390f35b34801561077457600080fd5b5061078f600480360381019061078a91906132e8565b61173f565b60405161079c9190613868565b60405180910390f35b3480156107b157600080fd5b506107ba611898565b6040516107c79190613aca565b60405180910390f35b3480156107dc57600080fd5b506107f760048036038101906107f291906132a7565b61189e565b005b34801561080557600080fd5b50610820600480360381019061081b91906130ae565b611934565b60405161082d919061384d565b60405180910390f35b34801561084257600080fd5b5061085d600480360381019061085891906132a7565b6119c8565b005b34801561086b57600080fd5b5061088660048036038101906108819190613085565b611a5e565b005b60007f780e9d63000000000000000000000000000000000000000000000000000000007bffffffffffffffffffffffffffffffffffffffffffffffffffffffff1916827bffffffffffffffffffffffffffffffffffffffffffffffffffffffff191614806108fb57506108fa82611b56565b5b9050919050565b61090a611c38565b73ffffffffffffffffffffffffffffffffffffffff166109286113ee565b73ffffffffffffffffffffffffffffffffffffffff161461097e576040517f08c379a000000000000000000000000000000000000000000000000000000000815260040161097590613a2a565b60405180910390fd5b80601160006101000a81548160ff02191690831515021790555050565b60006109a7600b611c40565b905090565b6060600080546109bb90613dd3565b80601f01602080910402602001604051908101604052809291908181526020018280546109e790613dd3565b8015610a345780601f10610a0957610100808354040283529160200191610a34565b820191906000526020600020905b815481529060010190602001808311610a1757829003601f168201915b5050505050905090565b6000610a4982611c4e565b610a88576040517f08c379a0000000000000000000000000000000000000000000000000000000008152600401610a7f90613a0a565b60405180910390fd5b6004600083815260200190815260200160002060009054906101000a900473ffffffffffffffffffffffffffffffffffffffff169050919050565b60128054610ad090613dd3565b80601f0160208091040260200160405190810160405280929190818152602001828054610afc90613dd3565b8015610b495780601f10610b1e57610100808354040283529160200191610b49565b820191906000526020600020905b815481529060010190602001808311610b2c57829003601f168201915b505050505081565b6000610b5c82611176565b90508073ffffffffffffffffffffffffffffffffffffffff168373ffffffffffffffffffffffffffffffffffffffff161415610bcd576040517f08c379a0000000000000000000000000000000000000000000000000000000008152600401610bc490613a6a565b60405180910390fd5b8073ffffffffffffffffffffffffffffffffffffffff16610bec611c38565b73ffffffffffffffffffffffffffffffffffffffff161480610c1b5750610c1a81610c15611c38565b611934565b5b610c5a576040517f08c379a0000000000000000000000000000000000000000000000000000000008152600401610c519061398a565b60405180910390fd5b610c648383611cba565b505050565b600e5481565b6000600880549050905090565b60105481565b610c93610c8d611c38565b82611d73565b610cd2576040517f08c379a0000000000000000000000000000000000000000000000000000000008152600401610cc990613a8a565b60405180910390fd5b610cdd838383611e51565b505050565b6000610ced83611228565b8210610d2e576040517f08c379a0000000000000000000000000000000000000000000000000000000008152600401610d259061388a565b60405180910390fd5b600660008473ffffffffffffffffffffffffffffffffffffffff1673ffffffffffffffffffffffffffffffffffffffff168152602001908152602001600020600083815260200190815260200160002054905092915050565b610d8f611c38565b73ffffffffffffffffffffffffffffffffffffffff16610dad6113ee565b73ffffffffffffffffffffffffffffffffffffffff1614610e03576040517f08c379a0000000000000000000000000000000000000000000000000000000008152600401610dfa90613a2a565b60405180910390fd5b6000610e0d6113ee565b73ffffffffffffffffffffffffffffffffffffffff1647604051610e30906137af565b60006040518083038185875af1925050503d8060008114610e6d576040519150601f19603f3d011682016040523d82523d6000602084013e610e72565b606091505b5050905080610e8057600080fd5b50565b610e9e8383836040518060200160405280600081525061164f565b505050565b60606000610eb083611228565b905060008167ffffffffffffffff811115610ef4577f4e487b7100000000000000000000000000000000000000000000000000000000600052604160045260246000fd5b604051908082528060200260200182016040528015610f225781602001602082028036833780820191505090505b50905060005b82811015610f9257610f3a8582610ce2565b828281518110610f73577f4e487b7100000000000000000000000000000000000000000000000000000000600052603260045260246000fd5b6020026020010181815250508080610f8a90613e36565b915050610f28565b508092505050919050565b610fa5611c38565b73ffffffffffffffffffffffffffffffffffffffff16610fc36113ee565b73ffffffffffffffffffffffffffffffffffffffff1614611019576040517f08c379a000000000000000000000000000000000000000000000000000000000815260040161101090613a2a565b60405180910390fd5b80600e8190555050565b600061102d610c6f565b821061106e576040517f08c379a000000000000000000000000000000000000000000000000000000000815260040161106590613aaa565b60405180910390fd5b600882815481106110a8577f4e487b7100000000000000000000000000000000000000000000000000000000600052603260045260246000fd5b90600052602060002001549050919050565b601160019054906101000a900460ff1681565b6110d5611c38565b73ffffffffffffffffffffffffffffffffffffffff166110f36113ee565b73ffffffffffffffffffffffffffffffffffffffff1614611149576040517f08c379a000000000000000000000000000000000000000000000000000000000815260040161114090613a2a565b60405180910390fd5b80600c908051906020019061115f929190612ea9565b5050565b601160009054906101000a900460ff1681565b6000806002600084815260200190815260200160002060009054906101000a900473ffffffffffffffffffffffffffffffffffffffff169050600073ffffffffffffffffffffffffffffffffffffffff168173ffffffffffffffffffffffffffffffffffffffff16141561121f576040517f08c379a0000000000000000000000000000000000000000000000000000000008152600401611216906139ca565b60405180910390fd5b80915050919050565b60008073ffffffffffffffffffffffffffffffffffffffff168273ffffffffffffffffffffffffffffffffffffffff161415611299576040517f08c379a0000000000000000000000000000000000000000000000000000000008152600401611290906139aa565b60405180910390fd5b600360008373ffffffffffffffffffffffffffffffffffffffff1673ffffffffffffffffffffffffffffffffffffffff168152602001908152602001600020549050919050565b6112e8611c38565b73ffffffffffffffffffffffffffffffffffffffff166113066113ee565b73ffffffffffffffffffffffffffffffffffffffff161461135c576040517f08c379a000000000000000000000000000000000000000000000000000000000815260040161135390613a2a565b60405180910390fd5b61136660006120b8565b565b611370611c38565b73ffffffffffffffffffffffffffffffffffffffff1661138e6113ee565b73ffffffffffffffffffffffffffffffffffffffff16146113e4576040517f08c379a00000000000000000000000000000000000000000000000000000000081526004016113db90613a2a565b60405180910390fd5b8060108190555050565b6000600a60009054906101000a900473ffffffffffffffffffffffffffffffffffffffff16905090565b60606001805461142790613dd3565b80601f016020809104026020016040519081016040528092919081815260200182805461145390613dd3565b80156114a05780601f10611475576101008083540402835291602001916114a0565b820191906000526020600020905b81548152906001019060200180831161148357829003601f168201915b5050505050905090565b60006114b4610c6f565b90506114c0600b61217e565b601160009054906101000a900460ff16156114da57600080fd5b600082116114e757600080fd5b6010548211156114f657600080fd5b600f5482826115059190613c08565b111561151057600080fd5b6115186113ee565b73ffffffffffffffffffffffffffffffffffffffff163373ffffffffffffffffffffffffffffffffffffffff16146115655781600e546115589190613c8f565b34101561156457600080fd5b5b6000600190505b82811161159b576115883382846115839190613c08565b612194565b808061159390613e36565b91505061156c565b505050565b6115b26115ab611c38565b83836121b2565b5050565b6115be611c38565b73ffffffffffffffffffffffffffffffffffffffff166115dc6113ee565b73ffffffffffffffffffffffffffffffffffffffff1614611632576040517f08c379a000000000000000000000000000000000000000000000000000000000815260040161162990613a2a565b60405180910390fd5b6001601160016101000a81548160ff021916908315150217905550565b61166061165a611c38565b83611d73565b61169f576040517f08c379a000000000000000000000000000000000000000000000000000000000815260040161169690613a8a565b60405180910390fd5b6116ab8484848461231f565b50505050565b600d80546116be90613dd3565b80601f01602080910402602001604051908101604052809291908181526020018280546116ea90613dd3565b80156117375780601f1061170c57610100808354040283529160200191611737565b820191906000526020600020905b81548152906001019060200180831161171a57829003601f168201915b505050505081565b606061174a82611c4e565b611789576040517f08c379a000000000000000000000000000000000000000000000000000000000815260040161178090613a4a565b60405180910390fd5b60001515601160019054906101000a900460ff161515141561183757601280546117b290613dd3565b80601f01602080910402602001604051908101604052809291908181526020018280546117de90613dd3565b801561182b5780601f106118005761010080835404028352916020019161182b565b820191906000526020600020905b81548152906001019060200180831161180e57829003601f168201915b50505050509050611893565b600061184161237b565b90506000815111611861576040518060200160405280600081525061188f565b8061186b8461240d565b600d60405160200161187f9392919061377e565b6040516020818303038152906040525b9150505b919050565b600f5481565b6118a6611c38565b73ffffffffffffffffffffffffffffffffffffffff166118c46113ee565b73ffffffffffffffffffffffffffffffffffffffff161461191a576040517f08c379a000000000000000000000000000000000000000000000000000000000815260040161191190613a2a565b60405180910390fd5b80600d9080519060200190611930929190612ea9565b5050565b6000600560008473ffffffffffffffffffffffffffffffffffffffff1673ffffffffffffffffffffffffffffffffffffffff16815260200190815260200160002060008373ffffffffffffffffffffffffffffffffffffffff1673ffffffffffffffffffffffffffffffffffffffff16815260200190815260200160002060009054906101000a900460ff16905092915050565b6119d0611c38565b73ffffffffffffffffffffffffffffffffffffffff166119ee6113ee565b73ffffffffffffffffffffffffffffffffffffffff1614611a44576040517f08c379a0000000000000000000000000000000000000000000000000000000008152600401611a3b90613a2a565b60405180910390fd5b8060129080519060200190611a5a929190612ea9565b5050565b611a66611c38565b73ffffffffffffffffffffffffffffffffffffffff16611a846113ee565b73ffffffffffffffffffffffffffffffffffffffff1614611ada576040517f08c379a0000000000000000000000000000000000000000000000000000000008152600401611ad190613a2a565b60405180910390fd5b600073ffffffffffffffffffffffffffffffffffffffff168173ffffffffffffffffffffffffffffffffffffffff161415611b4a576040517f08c379a0000000000000000000000000000000000000000000000000000000008152600401611b41906138ca565b60405180910390fd5b611b53816120b8565b50565b60007f80ac58cd000000000000000000000000000000000000000000000000000000007bffffffffffffffffffffffffffffffffffffffffffffffffffffffff1916827bffffffffffffffffffffffffffffffffffffffffffffffffffffffff19161480611c2157507f5b5e139f000000000000000000000000000000000000000000000000000000007bffffffffffffffffffffffffffffffffffffffffffffffffffffffff1916827bffffffffffffffffffffffffffffffffffffffffffffffffffffffff1916145b80611c315750611c30826125ba565b5b9050919050565b600033905090565b600081600001549050919050565b60008073ffffffffffffffffffffffffffffffffffffffff166002600084815260200190815260200160002060009054906101000a900473ffffffffffffffffffffffffffffffffffffffff1673ffffffffffffffffffffffffffffffffffffffff1614159050919050565b816004600083815260200190815260200160002060006101000a81548173ffffffffffffffffffffffffffffffffffffffff021916908373ffffffffffffffffffffffffffffffffffffffff160217905550808273ffffffffffffffffffffffffffffffffffffffff16611d2d83611176565b73ffffffffffffffffffffffffffffffffffffffff167f8c5be1e5ebec7d5bd14f71427d1e84f3dd0314c0f7b2291e5b200ac8c7c3b92560405160405180910390a45050565b6000611d7e82611c4e565b611dbd576040517f08c379a0000000000000000000000000000000000000000000000000000000008152600401611db49061396a565b60405180910390fd5b6000611dc883611176565b90508073ffffffffffffffffffffffffffffffffffffffff168473ffffffffffffffffffffffffffffffffffffffff161480611e0a5750611e098185611934565b5b80611e4857508373ffffffffffffffffffffffffffffffffffffffff16611e3084610a3e565b73ffffffffffffffffffffffffffffffffffffffff16145b91505092915050565b8273ffffffffffffffffffffffffffffffffffffffff16611e7182611176565b73ffffffffffffffffffffffffffffffffffffffff1614611ec7576040517f08c379a0000000000000000000000000000000000000000000000000000000008152600401611ebe906138ea565b60405180910390fd5b600073ffffffffffffffffffffffffffffffffffffffff168273ffffffffffffffffffffffffffffffffffffffff161415611f37576040517f08c379a0000000000000000000000000000000000000000000000000000000008152600401611f2e9061392a565b60405180910390fd5b611f42838383612624565b611f4d600082611cba565b6001600360008573ffffffffffffffffffffffffffffffffffffffff1673ffffffffffffffffffffffffffffffffffffffff1681526020019081526020016000206000828254611f9d9190613ce9565b925050819055506001600360008473ffffffffffffffffffffffffffffffffffffffff1673ffffffffffffffffffffffffffffffffffffffff1681526020019081526020016000206000828254611ff49190613c08565b92505081905550816002600083815260200190815260200160002060006101000a81548173ffffffffffffffffffffffffffffffffffffffff021916908373ffffffffffffffffffffffffffffffffffffffff160217905550808273ffffffffffffffffffffffffffffffffffffffff168473ffffffffffffffffffffffffffffffffffffffff167fddf252ad1be2c89b69c2b068fc378daa952ba7f163c4a11628f55a4df523b3ef60405160405180910390a46120b3838383612738565b505050565b6000600a60009054906101000a900473ffffffffffffffffffffffffffffffffffffffff16905081600a60006101000a81548173ffffffffffffffffffffffffffffffffffffffff021916908373ffffffffffffffffffffffffffffffffffffffff1602179055508173ffffffffffffffffffffffffffffffffffffffff168173ffffffffffffffffffffffffffffffffffffffff167f8be0079c531659141344cd1fd0a4f28419497f9722a3daafe3b4186f6b6457e060405160405180910390a35050565b6001816000016000828254019250508190555050565b6121ae82826040518060200160405280600081525061273d565b5050565b8173ffffffffffffffffffffffffffffffffffffffff168373ffffffffffffffffffffffffffffffffffffffff161415612221576040517f08c379a00000000000000000000000000000000000000000000000000000000081526004016122189061394a565b60405180910390fd5b80600560008573ffffffffffffffffffffffffffffffffffffffff1673ffffffffffffffffffffffffffffffffffffffff16815260200190815260200160002060008473ffffffffffffffffffffffffffffffffffffffff1673ffffffffffffffffffffffffffffffffffffffff16815260200190815260200160002060006101000a81548160ff0219169083151502179055508173ffffffffffffffffffffffffffffffffffffffff168373ffffffffffffffffffffffffffffffffffffffff167f17307eab39ab6107e8899845ad3d59bd9653f200f220920489ca2b5937696c3183604051612312919061384d565b60405180910390a3505050565b61232a848484611e51565b61233684848484612798565b612375576040517f08c379a000000000000000000000000000000000000000000000000000000000815260040161236c906138aa565b60405180910390fd5b50505050565b6060600c805461238a90613dd3565b80601f01602080910402602001604051908101604052809291908181526020018280546123b690613dd3565b80156124035780601f106123d857610100808354040283529160200191612403565b820191906000526020600020905b8154815290600101906020018083116123e657829003601f168201915b5050505050905090565b60606000821415612455576040518060400160405280600181526020017f300000000000000000000000000000000000000000000000000000000000000081525090506125b5565b600082905060005b6000821461248757808061247090613e36565b915050600a826124809190613c5e565b915061245d565b60008167ffffffffffffffff8111156124c9577f4e487b7100000000000000000000000000000000000000000000000000000000600052604160045260246000fd5b6040519080825280601f01601f1916602001820160405280156124fb5781602001600182028036833780820191505090505b5090505b600085146125ae576001826125149190613ce9565b9150600a856125239190613e7f565b603061252f9190613c08565b60f81b81838151811061256b577f4e487b7100000000000000000000000000000000000000000000000000000000600052603260045260246000fd5b60200101907effffffffffffffffffffffffffffffffffffffffffffffffffffffffffffff1916908160001a905350600a856125a79190613c5e565b94506124ff565b8093505050505b919050565b60007f01ffc9a7000000000000000000000000000000000000000000000000000000007bffffffffffffffffffffffffffffffffffffffffffffffffffffffff1916827bffffffffffffffffffffffffffffffffffffffffffffffffffffffff1916149050919050565b61262f83838361292f565b600073ffffffffffffffffffffffffffffffffffffffff168373ffffffffffffffffffffffffffffffffffffffff1614156126725761266d81612934565b6126b1565b8173ffffffffffffffffffffffffffffffffffffffff168373ffffffffffffffffffffffffffffffffffffffff16146126b0576126af838261297d565b5b5b600073ffffffffffffffffffffffffffffffffffffffff168273ffffffffffffffffffffffffffffffffffffffff1614156126f4576126ef81612aea565b612733565b8273ffffffffffffffffffffffffffffffffffffffff168273ffffffffffffffffffffffffffffffffffffffff1614612732576127318282612c2d565b5b5b505050565b505050565b6127478383612cac565b6127546000848484612798565b612793576040517f08c379a000000000000000000000000000000000000000000000000000000000815260040161278a906138aa565b60405180910390fd5b505050565b60006127b98473ffffffffffffffffffffffffffffffffffffffff16612e86565b15612922578373ffffffffffffffffffffffffffffffffffffffff1663150b7a026127e2611c38565b8786866040518563ffffffff1660e01b815260040161280494939291906137df565b602060405180830381600087803b15801561281e57600080fd5b505af192505050801561284f57506040513d601f19601f8201168201806040525081019061284c919061327e565b60015b6128d2573d806000811461287f576040519150601f19603f3d011682016040523d82523d6000602084013e612884565b606091505b506000815114156128ca576040517f08c379a00000000000000000000000000000000000000000000000000000000081526004016128c1906138aa565b60405180910390fd5b805181602001fd5b63150b7a0260e01b7bffffffffffffffffffffffffffffffffffffffffffffffffffffffff1916817bffffffffffffffffffffffffffffffffffffffffffffffffffffffff191614915050612927565b600190505b949350505050565b505050565b6008805490506009600083815260200190815260200160002081905550600881908060018154018082558091505060019003906000526020600020016000909190919091505550565b6000600161298a84611228565b6129949190613ce9565b9050600060076000848152602001908152602001600020549050818114612a79576000600660008673ffffffffffffffffffffffffffffffffffffffff1673ffffffffffffffffffffffffffffffffffffffff168152602001908152602001600020600084815260200190815260200160002054905080600660008773ffffffffffffffffffffffffffffffffffffffff1673ffffffffffffffffffffffffffffffffffffffff168152602001908152602001600020600084815260200190815260200160002081905550816007600083815260200190815260200160002081905550505b6007600084815260200190815260200160002060009055600660008573ffffffffffffffffffffffffffffffffffffffff1673ffffffffffffffffffffffffffffffffffffffff16815260200190815260200160002060008381526020019081526020016000206000905550505050565b60006001600880549050612afe9190613ce9565b9050600060096000848152602001908152602001600020549050600060088381548110612b54577f4e487b7100000000000000000000000000000000000000000000000000000000600052603260045260246000fd5b906000526020600020015490508060088381548110612b9c577f4e487b7100000000000000000000000000000000000000000000000000000000600052603260045260246000fd5b906000526020600020018190555081600960008381526020019081526020016000208190555060096000858152602001908152602001600020600090556008805480612c11577f4e487b7100000000000000000000000000000000000000000000000000000000600052603160045260246000fd5b6001900381819060005260206000200160009055905550505050565b6000612c3883611228565b905081600660008573ffffffffffffffffffffffffffffffffffffffff1673ffffffffffffffffffffffffffffffffffffffff168152602001908152602001600020600083815260200190815260200160002081905550806007600084815260200190815260200160002081905550505050565b600073ffffffffffffffffffffffffffffffffffffffff168273ffffffffffffffffffffffffffffffffffffffff161415612d1c576040517f08c379a0000000000000000000000000000000000000000000000000000000008152600401612d13906139ea565b60405180910390fd5b612d2581611c4e565b15612d65576040517f08c379a0000000000000000000000000000000000000000000000000000000008152600401612d5c9061390a565b60405180910390fd5b612d7160008383612624565b6001600360008473ffffffffffffffffffffffffffffffffffffffff1673ffffffffffffffffffffffffffffffffffffffff1681526020019081526020016000206000828254612dc19190613c08565b92505081905550816002600083815260200190815260200160002060006101000a81548173ffffffffffffffffffffffffffffffffffffffff021916908373ffffffffffffffffffffffffffffffffffffffff160217905550808273ffffffffffffffffffffffffffffffffffffffff16600073ffffffffffffffffffffffffffffffffffffffff167fddf252ad1be2c89b69c2b068fc378daa952ba7f163c4a11628f55a4df523b3ef60405160405180910390a4612e8260008383612738565b5050565b6000808273ffffffffffffffffffffffffffffffffffffffff163b119050919050565b828054612eb590613dd3565b90600052602060002090601f016020900481019282612ed75760008555612f1e565b82601f10612ef057805160ff1916838001178555612f1e565b82800160010185558215612f1e579182015b82811115612f1d578251825591602001919060010190612f02565b5b509050612f2b9190612f2f565b5090565b5b80821115612f48576000816000905550600101612f30565b5090565b6000612f5f612f5a84613b0a565b613ae5565b905082815260208101848484011115612f7757600080fd5b612f82848285613d91565b509392505050565b6000612f9d612f9884613b3b565b613ae5565b905082815260208101848484011115612fb557600080fd5b612fc0848285613d91565b509392505050565b600081359050612fd781614476565b92915050565b600081359050612fec8161448d565b92915050565b600081359050613001816144a4565b92915050565b600081519050613016816144a4565b92915050565b600082601f83011261302d57600080fd5b813561303d848260208601612f4c565b91505092915050565b600082601f83011261305757600080fd5b8135613067848260208601612f8a565b91505092915050565b60008135905061307f816144bb565b92915050565b60006020828403121561309757600080fd5b60006130a584828501612fc8565b91505092915050565b600080604083850312156130c157600080fd5b60006130cf85828601612fc8565b92505060206130e085828601612fc8565b9150509250929050565b6000806000606084860312156130ff57600080fd5b600061310d86828701612fc8565b935050602061311e86828701612fc8565b925050604061312f86828701613070565b9150509250925092565b6000806000806080858703121561314f57600080fd5b600061315d87828801612fc8565b945050602061316e87828801612fc8565b935050604061317f87828801613070565b925050606085013567ffffffffffffffff81111561319c57600080fd5b6131a88782880161301c565b91505092959194509250565b600080604083850312156131c757600080fd5b60006131d585828601612fc8565b92505060206131e685828601612fdd565b9150509250929050565b6000806040838503121561320357600080fd5b600061321185828601612fc8565b925050602061322285828601613070565b9150509250929050565b60006020828403121561323e57600080fd5b600061324c84828501612fdd565b91505092915050565b60006020828403121561326757600080fd5b600061327584828501612ff2565b91505092915050565b60006020828403121561329057600080fd5b600061329e84828501613007565b91505092915050565b6000602082840312156132b957600080fd5b600082013567ffffffffffffffff8111156132d357600080fd5b6132df84828501613046565b91505092915050565b6000602082840312156132fa57600080fd5b600061330884828501613070565b91505092915050565b600061331d8383613760565b60208301905092915050565b61333281613d1d565b82525050565b600061334382613b91565b61334d8185613bbf565b935061335883613b6c565b8060005b838110156133895781516133708882613311565b975061337b83613bb2565b92505060018101905061335c565b5085935050505092915050565b61339f81613d2f565b82525050565b60006133b082613b9c565b6133ba8185613bd0565b93506133ca818560208601613da0565b6133d381613f6c565b840191505092915050565b60006133e982613ba7565b6133f38185613bec565b9350613403818560208601613da0565b61340c81613f6c565b840191505092915050565b600061342282613ba7565b61342c8185613bfd565b935061343c818560208601613da0565b80840191505092915050565b6000815461345581613dd3565b61345f8186613bfd565b9450600182166000811461347a576001811461348b576134be565b60ff198316865281860193506134be565b61349485613b7c565b60005b838110156134b657815481890152600182019150602081019050613497565b838801955050505b50505092915050565b60006134d4602b83613bec565b91506134df82613f7d565b604082019050919050565b60006134f7603283613bec565b915061350282613fcc565b604082019050919050565b600061351a602683613bec565b91506135258261401b565b604082019050919050565b600061353d602583613bec565b91506135488261406a565b604082019050919050565b6000613560601c83613bec565b915061356b826140b9565b602082019050919050565b6000613583602483613bec565b915061358e826140e2565b604082019050919050565b60006135a6601983613bec565b91506135b182614131565b602082019050919050565b60006135c9602c83613bec565b91506135d48261415a565b604082019050919050565b60006135ec603883613bec565b91506135f7826141a9565b604082019050919050565b600061360f602a83613bec565b915061361a826141f8565b604082019050919050565b6000613632602983613bec565b915061363d82614247565b604082019050919050565b6000613655602083613bec565b915061366082614296565b602082019050919050565b6000613678602c83613bec565b9150613683826142bf565b604082019050919050565b600061369b602083613bec565b91506136a68261430e565b602082019050919050565b60006136be602f83613bec565b91506136c982614337565b604082019050919050565b60006136e1602183613bec565b91506136ec82614386565b604082019050919050565b6000613704600083613be1565b915061370f826143d5565b600082019050919050565b6000613727603183613bec565b9150613732826143d8565b604082019050919050565b600061374a602c83613bec565b915061375582614427565b604082019050919050565b61376981613d87565b82525050565b61377881613d87565b82525050565b600061378a8286613417565b91506137968285613417565b91506137a28284613448565b9150819050949350505050565b60006137ba826136f7565b9150819050919050565b60006020820190506137d96000830184613329565b92915050565b60006080820190506137f46000830187613329565b6138016020830186613329565b61380e604083018561376f565b818103606083015261382081846133a5565b905095945050505050565b600060208201905081810360008301526138458184613338565b905092915050565b60006020820190506138626000830184613396565b92915050565b6000602082019050818103600083015261388281846133de565b905092915050565b600060208201905081810360008301526138a3816134c7565b9050919050565b600060208201905081810360008301526138c3816134ea565b9050919050565b600060208201905081810360008301526138e38161350d565b9050919050565b6000602082019050818103600083015261390381613530565b9050919050565b6000602082019050818103600083015261392381613553565b9050919050565b6000602082019050818103600083015261394381613576565b9050919050565b6000602082019050818103600083015261396381613599565b9050919050565b60006020820190508181036000830152613983816135bc565b9050919050565b600060208201905081810360008301526139a3816135df565b9050919050565b600060208201905081810360008301526139c381613602565b9050919050565b600060208201905081810360008301526139e381613625565b9050919050565b60006020820190508181036000830152613a0381613648565b9050919050565b60006020820190508181036000830152613a238161366b565b9050919050565b60006020820190508181036000830152613a438161368e565b9050919050565b60006020820190508181036000830152613a63816136b1565b9050919050565b60006020820190508181036000830152613a83816136d4565b9050919050565b60006020820190508181036000830152613aa38161371a565b9050919050565b60006020820190508181036000830152613ac38161373d565b9050919050565b6000602082019050613adf600083018461376f565b92915050565b6000613aef613b00565b9050613afb8282613e05565b919050565b6000604051905090565b600067ffffffffffffffff821115613b2557613b24613f3d565b5b613b2e82613f6c565b9050602081019050919050565b600067ffffffffffffffff821115613b5657613b55613f3d565b5b613b5f82613f6c565b9050602081019050919050565b6000819050602082019050919050565b60008190508160005260206000209050919050565b600081519050919050565b600081519050919050565b600081519050919050565b6000602082019050919050565b600082825260208201905092915050565b600082825260208201905092915050565b600081905092915050565b600082825260208201905092915050565b600081905092915050565b6000613c1382613d87565b9150613c1e83613d87565b9250827fffffffffffffffffffffffffffffffffffffffffffffffffffffffffffffffff03821115613c5357613c52613eb0565b5b828201905092915050565b6000613c6982613d87565b9150613c7483613d87565b925082613c8457613c83613edf565b5b828204905092915050565b6000613c9a82613d87565b9150613ca583613d87565b9250817fffffffffffffffffffffffffffffffffffffffffffffffffffffffffffffffff0483118215151615613cde57613cdd613eb0565b5b828202905092915050565b6000613cf482613d87565b9150613cff83613d87565b925082821015613d1257613d11613eb0565b5b828203905092915050565b6000613d2882613d67565b9050919050565b60008115159050919050565b60007fffffffff0000000000000000000000000000000000000000000000000000000082169050919050565b600073ffffffffffffffffffffffffffffffffffffffff82169050919050565b6000819050919050565b82818337600083830152505050565b60005b83811015613dbe578082015181840152602081019050613da3565b83811115613dcd576000848401525b50505050565b60006002820490506001821680613deb57607f821691505b60208210811415613dff57613dfe613f0e565b5b50919050565b613e0e82613f6c565b810181811067ffffffffffffffff82111715613e2d57613e2c613f3d565b5b80604052505050565b6000613e4182613d87565b91507fffffffffffffffffffffffffffffffffffffffffffffffffffffffffffffffff821415613e7457613e73613eb0565b5b600182019050919050565b6000613e8a82613d87565b9150613e9583613d87565b925082613ea557613ea4613edf565b5b828206905092915050565b7f4e487b7100000000000000000000000000000000000000000000000000000000600052601160045260246000fd5b7f4e487b7100000000000000000000000000000000000000000000000000000000600052601260045260246000fd5b7f4e487b7100000000000000000000000000000000000000000000000000000000600052602260045260246000fd5b7f4e487b7100000000000000000000000000000000000000000000000000000000600052604160045260246000fd5b6000601f19601f8301169050919050565b7f455243373231456e756d657261626c653a206f776e657220696e646578206f7560008201527f74206f6620626f756e6473000000000000000000000000000000000000000000602082015250565b7f4552433732313a207472616e7366657220746f206e6f6e20455243373231526560008201527f63656976657220696d706c656d656e7465720000000000000000000000000000602082015250565b7f4f776e61626c653a206e6577206f776e657220697320746865207a65726f206160008201527f6464726573730000000000000000000000000000000000000000000000000000602082015250565b7f4552433732313a207472616e736665722066726f6d20696e636f72726563742060008201527f6f776e6572000000000000000000000000000000000000000000000000000000602082015250565b7f4552433732313a20746f6b656e20616c7265616479206d696e74656400000000600082015250565b7f4552433732313a207472616e7366657220746f20746865207a65726f2061646460008201527f7265737300000000000000000000000000000000000000000000000000000000602082015250565b7f4552433732313a20617070726f766520746f2063616c6c657200000000000000600082015250565b7f4552433732313a206f70657261746f7220717565727920666f72206e6f6e657860008201527f697374656e7420746f6b656e0000000000000000000000000000000000000000602082015250565b7f4552433732313a20617070726f76652063616c6c6572206973206e6f74206f7760008201527f6e6572206e6f7220617070726f76656420666f7220616c6c0000000000000000602082015250565b7f4552433732313a2062616c616e636520717565727920666f7220746865207a6560008201527f726f206164647265737300000000000000000000000000000000000000000000602082015250565b7f4552433732313a206f776e657220717565727920666f72206e6f6e657869737460008201527f656e7420746f6b656e0000000000000000000000000000000000000000000000602082015250565b7f4552433732313a206d696e7420746f20746865207a65726f2061646472657373600082015250565b7f4552433732313a20617070726f76656420717565727920666f72206e6f6e657860008201527f697374656e7420746f6b656e0000000000000000000000000000000000000000602082015250565b7f4f776e61626c653a2063616c6c6572206973206e6f7420746865206f776e6572600082015250565b7f4552433732314d657461646174613a2055524920717565727920666f72206e6f60008201527f6e6578697374656e7420746f6b656e0000000000000000000000000000000000602082015250565b7f4552433732313a20617070726f76616c20746f2063757272656e74206f776e6560008201527f7200000000000000000000000000000000000000000000000000000000000000602082015250565b50565b7f4552433732313a207472616e736665722063616c6c6572206973206e6f74206f60008201527f776e6572206e6f7220617070726f766564000000000000000000000000000000602082015250565b7f455243373231456e756d657261626c653a20676c6f62616c20696e646578206f60008201527f7574206f6620626f756e64730000000000000000000000000000000000000000602082015250565b61447f81613d1d565b811461448a57600080fd5b50565b61449681613d2f565b81146144a157600080fd5b50565b6144ad81613d3b565b81146144b857600080fd5b50565b6144c481613d87565b81146144cf57600080fd5b5056fea26469706673582212203ab4fbd374c4e5844f4b6ba7477f190d8405c49342adee17bcfe26f3187b8dcd64736f6c63430008040033",
  "linkReferences": {},
  "deployedLinkReferences": {}
}